:030000000202FDFC
:0C02FD00787FE4F6D8FD758147020344C9
:0F0575007D367C07ED1D70011C144C70F7DFF113
:010584002254
:0605900000007F39DFFED0
:010596002242
:10038900E4F516750D01751708E51625E0F516E46F
:10039900F51520CD0AAF150515EFC3949640F3E581
:1003A90015C39496400280261205901205901205F5
:1003B9009030CD1F051630CD0EAF150515EFC3943E
:1003C900965004D2CD80EFE515C394964005E4F527
:0E03D9000DFF221517E517D3940050ADAF1697
:0103E70022F3
:1001B200E4F512F513F514C2CD7F14120575D2CDF4
:1001C20012059012059012059012059030CD037F12
:1001D200002220CD0AAF140514EFC3949640F3E534
:1001E20014C3949640028019E4F514D2CD30CD0A9E
:1001F200AF140514EFC3949640F3E514C3949640EC
:1002020005D2CD7F0022E4F512120389740825126B
:10021200F8A607E50D7004D2CDFF22E51264046052
:100222000A74082512F8E62513F5130512E512C320
:10023200940540D5E513B50C1BE50875F00AA485B5
:10024200F00EF50FE50A75F00AA485F010F511D24B
:06025200CD7F01227F00B8
:010258002283
:10043300013A000A2730313233343536373839013F
:100443003500013400C101C104C108C107C105C1A0
:100453000201260001330002220000C103C106028B
:100463003C000002380000023600000231000001A7
:080473003B00012400012501FA
:1003E800E598543F4440F598759A50E5A2543F4427
:1003F80040F5A253BAFE538EEF438E01438E047527
:10040800D6FD75D78F438E10D29CD2BCD2AC1200C9
:1004180026D2AFE52524FF92859284120585E5262C
:0B042800B401F8E4F52612010280F098
:10002600438E805389F0758A40758CA2C28DC2B901
:07003600D2A9D2AFD28C2247
:03000B00020046AA
:10004600C0E0C0F0C083C082C0D075D000C000C080
:1000560001C002C003C004C005C006C0070523E5F1
:100066002370020522640245227076F522F52330BC
:10007600073C300502C285A2039281C3E532953959
:10008600E53195385013C2840532E53270020531E8
:10009600D280120597C2808015C20775310075326D
:1000A60000E52524FF9284300504C205D285300878
:1000B60030A2069283C3E537953DE536953C50134D
:1000C600C2850537E53770020536D282120597C21A
:1000D60082800EC208753600753700E52524FF922A
:1000E60085D007D006D005D004D003D002D001D0E9
:0C00F60000D0D0D082D083D0F0D0E03217
:0300230002047C58
:10047C00C0E0C0D075D000C000C00730982BC29827
:10048C00C2AC743E2534F8A6990534E534B4031790
:10049C00783EE6B4781108E6FF64796004EFB47A2C
:1004AC0006753400752601D2ACD007D000D0D0D060
:0204BC00E0322C
:030043000204BEF6
:1004BE00C0E0C0D075D000C000E59A30E009539A74
:1004CE00FE7843A69BD204E59A30E107539AFDC20B
:0A04DE0004C201D000D0D0D0E032FB
:100532007C007D641202727E007F0ACFCDCFCECCCA
:0A054200CE12027274272FF8E6FFB4
:08054C008F993099FDC299223C
:1004E8008B188A19891AAB18AA19A91A1202596005
:1004F80013051AE51A7002051914F9120259FF12A8
:05050800054C80E22219
:080003008F9BD2012001FD22B8
:10050D008B1B8A1C891DAB1BAA1CA91D12025960CD
:10051D0013051DE51D7002051C14F9120259FF1279
:05052D00000380E22242
:10010200783EE6647860030201B108E66479600330
:100112000201B118F608F608E6F53B2492601A14BB
:10012200603A14604014601F240470447B0112057D
:1001320054E4FB7DD07C07801DE4FB1205547B0157
:100142007DD07C07E4800F7B01E4FDFC7F0112057A
:100152005A7B01E4FDFCFF12055A80147B017D6489
:100162007C00E48005E4FB7D64FCFF12055AD205A5
:100172007840E6647A7034D20230022FC202120151
:10018200B28F3AE53A6024AE10AF117C007D641262
:100192000543AE10AF11120532AE0EAF0F7C007DDB
:1001A20064120543AE0EAF0F120532E47840F62218
:10000E00EF1FAC0670011E4C600A7D187C55DCFE9D
:04001E00DDFC80EC99
:0100220022BB
:0605970000007F03DFFEFF
:01059D00223B
:060554007DD07C077F0151
:10055A00BF010CD2088C3C8D3DEB24FF920622D2BF
:0B056A00078C388D39EB24FF92032230
:0B05850030860475250122E4F52522D4
:100309000203E8E493A3F8E493A34003F68001F21F
:1003190008DFF48029E493A3F85407240CC8C333F5
:10032900C4540F4420C8834004F456800146F6DFC4
:10033900E4800B0102040810204080900433E47E1D
:10034900019360BCA3FF543F30E509541FFEE493B9
:10035900A360010ECF54C025E060A840B8E493A380
:10036900FAE493A3F8E493A3C8C582C8CAC583CAAB
:10037900F0A3C8C582C8CAC583CADFE9DEE780BE63
:01047B000080
:10025900BB010689828A83E0225002E722BBFE02A3
:09026900E32289828A83E49322D6
:10027200C2D5EC30E709B2D5E4C39DFDE49CFCEEA7
:1002820030E715B2D5E4C39FFFE49EFE1202A8C375
:10029200E49DFDE49CFC80031202A830D507C3E470
:0602A2009FFFE49EFE2216
:1002A800BC000BBE0029EF8DF084FFADF022E4CC3A
:1002B800F875F008EF2FFFEE33FEEC33FCEE9DEC03
:1002C800984005FCEE9DFE0FD5F0E9E4CEFD22ED49
:1002D800F8F5F0EE8420D21CFEADF075F008EF2F93
:1002E800FFED33FD4007985006D5F0F222C398FD84
:0502F8000FD5F0EA2221
:00000001FF
